:020000040000FA
:0400000000EF10F00D
:0400080004EF10F001
:040018000CEF10F0E9
:0620000003012DEF10F0BA
:0420080016EF10F0CF
:0420180020EF10F0B5
:02202A000000B4
:04202C00F2B401D039
:1020300006D08C42F294370ED76EA70ED66E1100E2
:10204000D8CF01F3E8CF00F3E0CF02F302C3E0FF03
:1020500000C3E8FF01C3D8FF1000D59CD59AD596E0
:10206000D584D582D590D09EF28EF28A370ED76E67
:10207000A70ED66ED58E8C8EFFD744EC10F08D84D3
:1020800044EC10F08D9412000F0E036FFF0E046FDE
:10209000042F48EF10F0032F46EF10F01200100E3F
:1020A000056FFF0E046FFF0E036F032F55EF10F047
:1020B000042F53EF10F0052F51EF10F01200086BB2
:1020C000076B066B0A6B0A2B0A0E095FFCE20927F5
:1020D00009C308F30A070AC309F30A6B0A2B0A0E9D
:1020E000095FFCE2092709C307F30A070AC306F3DD
:0220F0001200DC
:00000001FF
