:020000040000FA
:0400000000EF10F00D
:0400080004EF10F001
:040018000CEF10F0E9
:0620000003013FEF10F0A8
:0420080016EF10F0CF
:0420180032EF10F0A3
:02202A000000B4
:04202C00F2B005D039
:10203000F2B208D0F0B009D011D081A88C7081AA7A
:102040008C720CD081A004D009D081A204D006D01B
:102050008C808C8203D08C6A8C6B00D0F290F292D0
:10206000F0901100D8CF01F3E8CF00F3E0CF02F3F6
:1020700002C3E0FF00C3E8FF01C3D8FF100093686C
:10208000956AD09EF28EF286F288F0860300FED723
:102090004FEC10F08D844FEC10F08D9412000F0E69
:1020A000036FFF0E046F042F53EF10F0032F51EF57
:1020B00010F01200100E056FFF0E046FFF0E036F7D
:1020C000032F60EF10F0042F5EEF10F0052F5CEF90
:1020D00010F01200086B076B066B0A6B0A2B0A0ED6
:1020E000095FFCE2092709C308F30A070AC309F3D9
:1020F0000A6B0A2B0A0E095FFCE2092709C307F3E2
:082100000A070AC306F31200EE
:00000001FF
