:020000040000FA
:0400000000EF10F00D
:0400080004EF10F001
:040018000CEF10F0E9
:06200000030124EF10F0C3
:0420080016EF10F0CF
:0420180017EF10F0BE
:02202A000000B4
:04202C001100D8CFF8
:1020300001F3E8CF00F3E0CF02F302C3E0FF00C3F7
:10204000E8FF01C3D8FF10000A0EC16E956A949094
:10205000969096948B80FF0E056F64EC10F0052F20
:102060002DEF10F08D908D94010E8C6E5DEC10F0C4
:10207000380E8C6E5DEC10F00C0E8C6E5DEC10F07A
:10208000060E8C6E5DEC10F0010E8C6E5DEC10F0A7
:102090008D908D94800E8C6E5DEC10F08D808D9403
:1020A000010E0A0E0C6F0C61400F010E0F0E0C6139
:1020B000370F8C6E5DEC10F0FFD764EC10F08D8460
:1020C00064EC10F08D9412000F0E036FFF0E046F7E
:1020D000042F68EF10F0032F66EF10F01200100EBF
:1020E000056FFF0E046FFF0E036F032F75EF10F0E7
:1020F000042F73EF10F0052F71EF10F01200086B32
:10210000076B066B0A6B0A2B0A0E095FFCE20927B4
:1021100009C308F30A070AC309F30A6B0A2B0A0E5C
:10212000095FFCE2092709C307F30A070AC306F39C
:0221300012009B
:00000001FF
