:020000040000FA
:0400000000EF10F00D
:0400080004EF10F001
:040018000CEF10F0E9
:06200000030131EF10F0B6
:0420080016EF10F0CF
:0420180024EF10F0B1
:02202A000000B4
:04202C00F2B001D03D
:1020300009D081AA07D081A800D081A800D081AAA8
:102040008C70F7D7F2901100D8CF01F3E8CF00F3EE
:10205000E0CF02F302C3E0FF00C3E8FF01C3D8FFF3
:1020600010009368956AD09EF28EF2860300FED728
:102070003FEC10F08D843FEC10F08D9412000F0EA9
:10208000036FFF0E046F042F43EF10F0032F41EF97
:1020900010F01200100E056FFF0E046FFF0E036F9D
:1020A000032F50EF10F0042F4EEF10F0052F4CEFE0
:1020B00010F01200086B076B066B0A6B0A2B0A0EF6
:1020C000095FFCE2092709C308F30A070AC309F3F9
:1020D0000A6B0A2B0A0E095FFCE2092709C307F302
:0820E0000A070AC306F312000F
:00000001FF
