:020000040000FA
:0400000000EF10F00D
:0400080004EF10F001
:040018000CEF10F0E9
:06200000030127EF10F0C0
:0420080016EF10F0CF
:042018001AEF10F0BB
:02202A000000B4
:04202C00F2B000D03E
:10203000F2901100D8CF01F3E8CF00F3E0CF02F324
:1020400002C3E0FF00C3E8FF01C3D8FF1000D59C26
:10205000D59AD596D584D582D580D09EF28EF2863B
:10206000480ED76EE50ED66ED58EF2A405D0480E7A
:10207000D76EE50ED66EF294F2A4F7D78C1E480EFA
:10208000D76EE50ED66EF294F0D74CEC10F08D843E
:102090004CEC10F08D9412000F0E036FFF0E046FC6
:1020A000042F50EF10F0032F4EEF10F01200100E1F
:1020B000056FFF0E046FFF0E036F032F5DEF10F02F
:1020C000042F5BEF10F0052F59EF10F01200086B92
:1020D000076B066B0A6B0A2B0A0E095FFCE20927E5
:1020E00009C308F30A070AC309F30A6B0A2B0A0E8D
:1020F000095FFCE2092709C307F30A070AC306F3CD
:022100001200CB
:00000001FF
